:0503CF00C1030121FE45
:1001CF00EF14600D14601014601614601D24048069
:1001DF0022752301E4801FE4F523752401F5252200
:1001EF00752301752401E4F52522E4F523F5247523
:0B01FF00250122E4F523F524F525225C
:07039000A202E433F526226E
:10027300EF14600A14600E146010240380137527B2
:1002830001E4F52822E4F527800375270175280189
:0702930022E4F527F5282203
:07039700A200E433F5292266
:07039E00A200E433F52A225E
:10029A00EF24F0FE5401F52BEEC3135401F52CEFB5
:1002AA0024F0FE13135401F52DEE1313135401F524
:0202BA002E22F2
:10020A00EF5401F52FEFC3135401F530EF131354D4
:10021A0001F531EF1313135401F532EFC45401F50C
:10022A0033EFC4135401F534EFC413135401F535F5
:0A023A00EFC41313135401F536222C
:0703A500A200E433F537224A
:0703AC00A200E433F5382242
:0703B300A200E433F539223A
:0703BA00A200E433F53A2232
:0703C100A200E433F53B222A
:1002F500E4F53CF53DF53E753F01F540754101F5E9
:0903050042F543754401F545225F
:0B03720030000475460122E4F546222D
:08000300E4F547F548F5492238
:0B037D00300004754A0122E4F54A221A
:08038800E4F54BF54CF54D22A4
:1002BC00EF14600C14601014600D24037009800797
:0E02CC00E4F54E754F0122754E01E4F54F2208
:10000E007F2E7E107850E4F608DEFC755301E4F581
:01001E006180
:01001F0022BE
:0703C800A200E433F56022FE
:10017900E52425E02523FFE52525E025E02FFFE5FA
:100189002675F008A42FFFE52C25E0252BFEE52D8B
:1001990025E025E02EFEE52E75F008A42E2F240C6F
:1001A900254A253B2560FF53070FEF5401F562EF00
:1001B900C3135401F563EF13135401F564EF1313DB
:0501C900135401F5656F
:0101CE00220E
:10011C007F011201CFD2021203901F120273D20080
:10012C00120397C20012039E7F1712029AE4FF1269
:10013C00020AC2001203A5D2001203ACC2001203C1
:10014C00B3C2001203BAC2001203C11202F5D200EC
:10015C00120372120003D20012037D1203880F12D5
:0D016C0002BC12000EC2001203C80201798D
:1002DA00A20092021203903001047F0180027F047F
:0B02EA001201CFAF0812029A02017946
:100327007D737C00ED1D70011C144C70F7EF1F707E
:06033700011E144E70EAE5
:01033D00229D
:10035400758922758CF4758AF4D2AFD2A9D2A422FD
:10033E00758922758DFD758BFDD28EC29FD29ED290
:06034E009CD2AFD2AC22EC
:06030E00D2007F197E0001
:10031400A200928CEF1FAC0670011E4C70F6C28CCA
:03032400D2A4223E
:1000B200D2007F867E01120314D2A4C2007FC27EC8
:1000C200011203147D0112030ED2A474222DF8E64C
:1000D2006006C2007FA08004C2007F377E00120348
:1000E200140DBD24E112030ED2A4C2007FD17E07FB
:1000F2001203147D2412030ED2A474222DF8E6609A
:1001020006C2007FA08004C2007F377E0012031463
:090112000DBD44E112030ED2A45C
:01011B0022C1
:03000B00020020D0
:03002000B2A43255
:0300230002036471
:0E03640030980A859990D203859921C298326B
:1002440012011C12035412033E3003F4C203E521CD
:10025400C413135403139200E521C41354071392D7
:0F02640001E521541FF5081202DA1200B280D111
:03000000020026D5
:0C002600787FE4F6D8FD75816502006D5E
:10003200020244E493A3F8E493A34003F68001F29E
:1000420008DFF48029E493A3F85407240CC8C333CF
:10005200C4540F4420C8834004F456800146F6DF9E
:10006200E4800B01020408102040809003CFE47E5C
:10007200019360BCA3FF543F30E509541FFEE49393
:10008200A360010ECF54C025E060A840B8E493A35A
:10009200FAE493A3F8E493A3C8C582C8CAC583CA85
:1000A200F0A3C8C582C8CAC583CADFE9DEE780BE3D
:0103D4000028
:00000001FF
